{
  "_format": "hh-sol-artifact-1",
  "contractName": "RealEstate",
  "sourceName": "contracts/RealEstate.sol",
  "abi": [
    {
      "inputs": [],
      "stateMutability": "nonpayable",
      "type": "constructor"
    },
    {
      "anonymous": false,
      "inputs": [
        {
          "indexed": true,
          "internalType": "address",
          "name": "owner",
          "type": "address"
        },
        {
          "indexed": true,
          "internalType": "address",
          "name": "approved",
          "type": "address"
        },
        {
          "indexed": true,
          "internalType": "uint256",
          "name": "tokenId",
          "type": "uint256"
        }
      ],
      "name": "Approval",
      "type": "event"
    },
    {
      "anonymous": false,
      "inputs": [
        {
          "indexed": true,
          "internalType": "address",
          "name": "owner",
          "type": "address"
        },
        {
          "indexed": true,
          "internalType": "address",
          "name": "operator",
          "type": "address"
        },
        {
          "indexed": false,
          "internalType": "bool",
          "name": "approved",
          "type": "bool"
        }
      ],
      "name": "ApprovalForAll",
      "type": "event"
    },
    {
      "anonymous": false,
      "inputs": [
        {
          "indexed": false,
          "internalType": "uint256",
          "name": "_fromTokenId",
          "type": "uint256"
        },
        {
          "indexed": false,
          "internalType": "uint256",
          "name": "_toTokenId",
          "type": "uint256"
        }
      ],
      "name": "BatchMetadataUpdate",
      "type": "event"
    },
    {
      "anonymous": false,
      "inputs": [
        {
          "indexed": false,
          "internalType": "uint256",
          "name": "_tokenId",
          "type": "uint256"
        }
      ],
      "name": "MetadataUpdate",
      "type": "event"
    },
    {
      "anonymous": false,
      "inputs": [
        {
          "indexed": true,
          "internalType": "address",
          "name": "from",
          "type": "address"
        },
        {
          "indexed": true,
          "internalType": "address",
          "name": "to",
          "type": "address"
        },
        {
          "indexed": true,
          "internalType": "uint256",
          "name": "tokenId",
          "type": "uint256"
        }
      ],
      "name": "Transfer",
      "type": "event"
    },
    {
      "inputs": [
        {
          "internalType": "address",
          "name": "to",
          "type": "address"
        },
        {
          "internalType": "uint256",
          "name": "tokenId",
          "type": "uint256"
        }
      ],
      "name": "approve",
      "outputs": [],
      "stateMutability": "nonpayable",
      "type": "function"
    },
    {
      "inputs": [
        {
          "internalType": "address",
          "name": "owner",
          "type": "address"
        }
      ],
      "name": "balanceOf",
      "outputs": [
        {
          "internalType": "uint256",
          "name": "",
          "type": "uint256"
        }
      ],
      "stateMutability": "view",
      "type": "function"
    },
    {
      "inputs": [
        {
          "internalType": "uint256",
          "name": "tokenId",
          "type": "uint256"
        }
      ],
      "name": "getApproved",
      "outputs": [
        {
          "internalType": "address",
          "name": "",
          "type": "address"
        }
      ],
      "stateMutability": "view",
      "type": "function"
    },
    {
      "inputs": [
        {
          "internalType": "address",
          "name": "owner",
          "type": "address"
        },
        {
          "internalType": "address",
          "name": "operator",
          "type": "address"
        }
      ],
      "name": "isApprovedForAll",
      "outputs": [
        {
          "internalType": "bool",
          "name": "",
          "type": "bool"
        }
      ],
      "stateMutability": "view",
      "type": "function"
    },
    {
      "inputs": [
        {
          "internalType": "string",
          "name": "tokenURI",
          "type": "string"
        }
      ],
      "name": "mint",
      "outputs": [
        {
          "internalType": "uint256",
          "name": "",
          "type": "uint256"
        }
      ],
      "stateMutability": "nonpayable",
      "type": "function"
    },
    {
      "inputs": [],
      "name": "name",
      "outputs": [
        {
          "internalType": "string",
          "name": "",
          "type": "string"
        }
      ],
      "stateMutability": "view",
      "type": "function"
    },
    {
      "inputs": [
        {
          "internalType": "uint256",
          "name": "tokenId",
          "type": "uint256"
        }
      ],
      "name": "ownerOf",
      "outputs": [
        {
          "internalType": "address",
          "name": "",
          "type": "address"
        }
      ],
      "stateMutability": "view",
      "type": "function"
    },
    {
      "inputs": [
        {
          "internalType": "address",
          "name": "from",
          "type": "address"
        },
        {
          "internalType": "address",
          "name": "to",
          "type": "address"
        },
        {
          "internalType": "uint256",
          "name": "tokenId",
          "type": "uint256"
        }
      ],
      "name": "safeTransferFrom",
      "outputs": [],
      "stateMutability": "nonpayable",
      "type": "function"
    },
    {
      "inputs": [
        {
          "internalType": "address",
          "name": "from",
          "type": "address"
        },
        {
          "internalType": "address",
          "name": "to",
          "type": "address"
        },
        {
          "internalType": "uint256",
          "name": "tokenId",
          "type": "uint256"
        },
        {
          "internalType": "bytes",
          "name": "data",
          "type": "bytes"
        }
      ],
      "name": "safeTransferFrom",
      "outputs": [],
      "stateMutability": "nonpayable",
      "type": "function"
    },
    {
      "inputs": [
        {
          "internalType": "address",
          "name": "operator",
          "type": "address"
        },
        {
          "internalType": "bool",
          "name": "approved",
          "type": "bool"
        }
      ],
      "name": "setApprovalForAll",
      "outputs": [],
      "stateMutability": "nonpayable",
      "type": "function"
    },
    {
      "inputs": [
        {
          "internalType": "bytes4",
          "name": "interfaceId",
          "type": "bytes4"
        }
      ],
      "name": "supportsInterface",
      "outputs": [
        {
          "internalType": "bool",
          "name": "",
          "type": "bool"
        }
      ],
      "stateMutability": "view",
      "type": "function"
    },
    {
      "inputs": [],
      "name": "symbol",
      "outputs": [
        {
          "internalType": "string",
          "name": "",
          "type": "string"
        }
      ],
      "stateMutability": "view",
      "type": "function"
    },
    {
      "inputs": [
        {
          "internalType": "uint256",
          "name": "tokenId",
          "type": "uint256"
        }
      ],
      "name": "tokenURI",
      "outputs": [
        {
          "internalType": "string",
          "name": "",
          "type": "string"
        }
      ],
      "stateMutability": "view",
      "type": "function"
    },
    {
      "inputs": [],
      "name": "totalSupply",
      "outputs": [
        {
          "internalType": "uint256",
          "name": "",
          "type": "uint256"
        }
      ],
      "stateMutability": "view",
      "type": "function"
    },
    {
      "inputs": [
        {
          "internalType": "address",
          "name": "from",
          "type": "address"
        },
        {
          "internalType": "address",
          "name": "to",
          "type": "address"
        },
        {
          "internalType": "uint256",
          "name": "tokenId",
          "type": "uint256"
        }
      ],
      "name": "transferFrom",
      "outputs": [],
      "stateMutability": "nonpayable",
      "type": "function"
    }
  ],
  "bytecode": "0x608060405234801562000010575f80fd5b506040518060400160405280600b81526020017f5265616c204573746174650000000000000000000000000000000000000000008152506040518060400160405280600481526020017f5245414c00000000000000000000000000000000000000000000000000000000815250815f90816200008d91906200030c565b5080600190816200009f91906200030c565b505050620003f0565b5f81519050919050565b7f4e487b71000000000000000000000000000000000000000000000000000000005f52604160045260245ffd5b7f4e487b71000000000000000000000000000000000000000000000000000000005f52602260045260245ffd5b5f60028204905060018216806200012457607f821691505b6020821081036200013a5762000139620000df565b5b50919050565b5f819050815f5260205f209050919050565b5f6020601f8301049050919050565b5f82821b905092915050565b5f600883026200019e7fffffffffffffffffffffffffffffffffffffffffffffffffffffffffffffffff8262000161565b620001aa868362000161565b95508019841693508086168417925050509392505050565b5f819050919050565b5f819050919050565b5f620001f4620001ee620001e884620001c2565b620001cb565b620001c2565b9050919050565b5f819050919050565b6200020f83620001d4565b620002276200021e82620001fb565b8484546200016d565b825550505050565b5f90565b6200023d6200022f565b6200024a81848462000204565b505050565b5b818110156200027157620002655f8262000233565b60018101905062000250565b5050565b601f821115620002c0576200028a8162000140565b620002958462000152565b81016020851015620002a5578190505b620002bd620002b48562000152565b8301826200024f565b50505b505050565b5f82821c905092915050565b5f620002e25f1984600802620002c5565b1980831691505092915050565b5f620002fc8383620002d1565b9150826002028217905092915050565b6200031782620000a8565b67ffffffffffffffff811115620003335762000332620000b2565b5b6200033f82546200010c565b6200034c82828562000275565b5f60209050601f83116001811462000382575f84156200036d578287015190505b620003798582620002ef565b865550620003e8565b601f198416620003928662000140565b5f5b82811015620003bb5784890151825560018201915060208501945060208101905062000394565b86831015620003db5784890151620003d7601f891682620002d1565b8355505b6001600288020188555050505b505050505050565b612a1380620003fe5f395ff3fe608060405234801561000f575f80fd5b50600436106100f3575f3560e01c80636352211e11610095578063b88d4fde11610064578063b88d4fde14610281578063c87b56dd1461029d578063d85d3d27146102cd578063e985e9c5146102fd576100f3565b80636352211e146101e757806370a082311461021757806395d89b4114610247578063a22cb46514610265576100f3565b8063095ea7b3116100d1578063095ea7b31461017557806318160ddd1461019157806323b872dd146101af57806342842e0e146101cb576100f3565b806301ffc9a7146100f757806306fdde0314610127578063081812fc14610145575b5f80fd5b610111600480360381019061010c919061199f565b61032d565b60405161011e91906119e4565b60405180910390f35b61012f61038d565b60405161013c9190611a87565b60405180910390f35b61015f600480360381019061015a9190611ada565b61041c565b60405161016c9190611b44565b60405180910390f35b61018f600480360381019061018a9190611b87565b61045e565b005b610199610574565b6040516101a69190611bd4565b60405180910390f35b6101c960048036038101906101c49190611bed565b610584565b005b6101e560048036038101906101e09190611bed565b6105e4565b005b61020160048036038101906101fc9190611ada565b610603565b60405161020e9190611b44565b60405180910390f35b610231600480360381019061022c9190611c3d565b610687565b60405161023e9190611bd4565b60405180910390f35b61024f61073b565b60405161025c9190611a87565b60405180910390f35b61027f600480360381019061027a9190611c92565b6107cb565b005b61029b60048036038101906102969190611dfc565b6107e1565b005b6102b760048036038101906102b29190611ada565b610843565b6040516102c49190611a87565b60405180910390f35b6102e760048036038101906102e29190611f1a565b61094d565b6040516102f49190611bd4565b60405180910390f35b61031760048036038101906103129190611f61565b610982565b60405161032491906119e4565b60405180910390f35b5f634906490660e01b7bffffffffffffffffffffffffffffffffffffffffffffffffffffffff1916827bffffffffffffffffffffffffffffffffffffffffffffffffffffffff19161480610386575061038582610a10565b5b9050919050565b60605f805461039b90611fcc565b80601f01602080910402602001604051908101604052809291908181526020018280546103c790611fcc565b80156104125780601f106103e957610100808354040283529160200191610412565b820191905f5260205f20905b8154815290600101906020018083116103f557829003601f168201915b5050505050905090565b5f61042682610af1565b60045f8381526020019081526020015f205f9054906101000a900473ffffffffffffffffffffffffffffffffffffffff169050919050565b5f61046882610603565b90508073ffffffffffffffffffffffffffffffffffffffff168373ffffffffffffffffffffffffffffffffffffffff16036104d8576040517f08c379a00000000000000000000000000000000000000000000000000000000081526004016104cf9061206c565b60405180910390fd5b8073ffffffffffffffffffffffffffffffffffffffff166104f7610b3c565b73ffffffffffffffffffffffffffffffffffffffff161480610526575061052581610520610b3c565b610982565b5b610565576040517f08c379a000000000000000000000000000000000000000000000000000000000815260040161055c906120fa565b60405180910390fd5b61056f8383610b43565b505050565b5f61057f6007610bf9565b905090565b61059561058f610b3c565b82610c05565b6105d4576040517f08c379a00000000000000000000000000000000000000000000000000000000081526004016105cb90612188565b60405180910390fd5b6105df838383610c99565b505050565b6105fe83838360405180602001604052805f8152506107e1565b505050565b5f8061060e83610f85565b90505f73ffffffffffffffffffffffffffffffffffffffff168173ffffffffffffffffffffffffffffffffffffffff160361067e576040517f08c379a0000000000000000000000000000000000000000000000000000000008152600401610675906121f0565b60405180910390fd5b80915050919050565b5f8073ffffffffffffffffffffffffffffffffffffffff168273ffffffffffffffffffffffffffffffffffffffff16036106f6576040517f08c379a00000000000000000000000000000000000000000000000000000000081526004016106ed9061227e565b60405180910390fd5b60035f8373ffffffffffffffffffffffffffffffffffffffff1673ffffffffffffffffffffffffffffffffffffffff1681526020019081526020015f20549050919050565b60606001805461074a90611fcc565b80601f016020809104026020016040519081016040528092919081815260200182805461077690611fcc565b80156107c15780601f10610798576101008083540402835291602001916107c1565b820191905f5260205f20905b8154815290600101906020018083116107a457829003601f168201915b5050505050905090565b6107dd6107d6610b3c565b8383610fbe565b5050565b6107f26107ec610b3c565b83610c05565b610831576040517f08c379a000000000000000000000000000000000000000000000000000000000815260040161082890612188565b60405180910390fd5b61083d84848484611125565b50505050565b606061084e82610af1565b5f60065f8481526020019081526020015f20805461086b90611fcc565b80601f016020809104026020016040519081016040528092919081815260200182805461089790611fcc565b80156108e25780601f106108b9576101008083540402835291602001916108e2565b820191905f5260205f20905b8154815290600101906020018083116108c557829003601f168201915b505050505090505f6108f2611181565b90505f815103610906578192505050610948565b5f8251111561093a5780826040516020016109229291906122d6565b60405160208183030381529060405292505050610948565b61094384611197565b925050505b919050565b5f61095860076111fc565b5f6109636007610bf9565b905061096f3382611210565b6109798184611423565b80915050919050565b5f60055f8473ffffffffffffffffffffffffffffffffffffffff1673ffffffffffffffffffffffffffffffffffffffff1681526020019081526020015f205f8373ffffffffffffffffffffffffffffffffffffffff1673ffffffffffffffffffffffffffffffffffffffff1681526020019081526020015f205f9054906101000a900460ff16905092915050565b5f7f80ac58cd000000000000000000000000000000000000000000000000000000007bffffffffffffffffffffffffffffffffffffffffffffffffffffffff1916827bffffffffffffffffffffffffffffffffffffffffffffffffffffffff19161480610ada57507f5b5e139f000000000000000000000000000000000000000000000000000000007bffffffffffffffffffffffffffffffffffffffffffffffffffffffff1916827bffffffffffffffffffffffffffffffffffffffffffffffffffffffff1916145b80610aea5750610ae9826114c5565b5b9050919050565b610afa8161152e565b610b39576040517f08c379a0000000000000000000000000000000000000000000000000000000008152600401610b30906121f0565b60405180910390fd5b50565b5f33905090565b8160045f8381526020019081526020015f205f6101000a81548173ffffffffffffffffffffffffffffffffffffffff021916908373ffffffffffffffffffffffffffffffffffffffff160217905550808273ffffffffffffffffffffffffffffffffffffffff16610bb383610603565b73ffffffffffffffffffffffffffffffffffffffff167f8c5be1e5ebec7d5bd14f71427d1e84f3dd0314c0f7b2291e5b200ac8c7c3b92560405160405180910390a45050565b5f815f01549050919050565b5f80610c1083610603565b90508073ffffffffffffffffffffffffffffffffffffffff168473ffffffffffffffffffffffffffffffffffffffff161480610c525750610c518185610982565b5b80610c9057508373ffffffffffffffffffffffffffffffffffffffff16610c788461041c565b73ffffffffffffffffffffffffffffffffffffffff16145b91505092915050565b8273ffffffffffffffffffffffffffffffffffffffff16610cb982610603565b73ffffffffffffffffffffffffffffffffffffffff1614610d0f576040517f08c379a0000000000000000000000000000000000000000000000000000000008152600401610d0690612369565b60405180910390fd5b5f73ffffffffffffffffffffffffffffffffffffffff168273ffffffffffffffffffffffffffffffffffffffff1603610d7d576040517f08c379a0000000000000000000000000000000000000000000000000000000008152600401610d74906123f7565b60405180910390fd5b610d8a838383600161156e565b8273ffffffffffffffffffffffffffffffffffffffff16610daa82610603565b73ffffffffffffffffffffffffffffffffffffffff1614610e00576040517f08c379a0000000000000000000000000000000000000000000000000000000008152600401610df790612369565b60405180910390fd5b60045f8281526020019081526020015f205f6101000a81549073ffffffffffffffffffffffffffffffffffffffff0219169055600160035f8573ffffffffffffffffffffffffffffffffffffffff1673ffffffffffffffffffffffffffffffffffffffff1681526020019081526020015f205f8282540392505081905550600160035f8473ffffffffffffffffffffffffffffffffffffffff1673ffffffffffffffffffffffffffffffffffffffff1681526020019081526020015f205f82825401925050819055508160025f8381526020019081526020015f205f6101000a81548173ffffffffffffffffffffffffffffffffffffffff021916908373ffffffffffffffffffffffffffffffffffffffff160217905550808273ffffffffffffffffffffffffffffffffffffffff168473ffffffffffffffffffffffffffffffffffffffff167fddf252ad1be2c89b69c2b068fc378daa952ba7f163c4a11628f55a4df523b3ef60405160405180910390a4610f808383836001611574565b505050565b5f60025f8381526020019081526020015f205f9054906101000a900473ffffffffffffffffffffffffffffffffffffffff169050919050565b8173ffffffffffffffffffffffffffffffffffffffff168373ffffffffffffffffffffffffffffffffffffffff160361102c576040517f08c379a00000000000000000000000000000000000000000000000000000000081526004016110239061245f565b60405180910390fd5b8060055f8573ffffffffffffffffffffffffffffffffffffffff1673ffffffffffffffffffffffffffffffffffffffff1681526020019081526020015f205f8473ffffffffffffffffffffffffffffffffffffffff1673ffffffffffffffffffffffffffffffffffffffff1681526020019081526020015f205f6101000a81548160ff0219169083151502179055508173ffffffffffffffffffffffffffffffffffffffff168373ffffffffffffffffffffffffffffffffffffffff167f17307eab39ab6107e8899845ad3d59bd9653f200f220920489ca2b5937696c318360405161111891906119e4565b60405180910390a3505050565b611130848484610c99565b61113c8484848461157a565b61117b576040517f08c379a0000000000000000000000000000000000000000000000000000000008152600401611172906124ed565b60405180910390fd5b50505050565b606060405180602001604052805f815250905090565b60606111a282610af1565b5f6111ab611181565b90505f8151116111c95760405180602001604052805f8152506111f4565b806111d3846116fc565b6040516020016111e49291906122d6565b6040516020818303038152906040525b915050919050565b6001815f015f828254019250508190555050565b5f73ffffffffffffffffffffffffffffffffffffffff168273ffffffffffffffffffffffffffffffffffffffff160361127e576040517f08c379a000000000000000000000000000000000000000000000000000000000815260040161127590612555565b60405180910390fd5b6112878161152e565b156112c7576040517f08c379a00000000000000000000000000000000000000000000000000000000081526004016112be906125bd565b60405180910390fd5b6112d45f8383600161156e565b6112dd8161152e565b1561131d576040517f08c379a0000000000000000000000000000000000000000000000000000000008152600401611314906125bd565b60405180910390fd5b600160035f8473ffffffffffffffffffffffffffffffffffffffff1673ffffffffffffffffffffffffffffffffffffffff1681526020019081526020015f205f82825401925050819055508160025f8381526020019081526020015f205f6101000a81548173ffffffffffffffffffffffffffffffffffffffff021916908373ffffffffffffffffffffffffffffffffffffffff160217905550808273ffffffffffffffffffffffffffffffffffffffff165f73ffffffffffffffffffffffffffffffffffffffff167fddf252ad1be2c89b69c2b068fc378daa952ba7f163c4a11628f55a4df523b3ef60405160405180910390a461141f5f83836001611574565b5050565b61142c8261152e565b61146b576040517f08c379a00000000000000000000000000000000000000000000000000000000081526004016114629061264b565b60405180910390fd5b8060065f8481526020019081526020015f2090816114899190612806565b507ff8e1a15aba9398e019f0b49df1a4fde98ee17ae345cb5f6b5e2c27f5033e8ce7826040516114b99190611bd4565b60405180910390a15050565b5f7f01ffc9a7000000000000000000000000000000000000000000000000000000007bffffffffffffffffffffffffffffffffffffffffffffffffffffffff1916827bffffffffffffffffffffffffffffffffffffffffffffffffffffffff1916149050919050565b5f8073ffffffffffffffffffffffffffffffffffffffff1661154f83610f85565b73ffffffffffffffffffffffffffffffffffffffff1614159050919050565b50505050565b50505050565b5f61159a8473ffffffffffffffffffffffffffffffffffffffff166117c6565b156116ef578373ffffffffffffffffffffffffffffffffffffffff1663150b7a026115c3610b3c565b8786866040518563ffffffff1660e01b81526004016115e59493929190612927565b6020604051808303815f875af192505050801561162057506040513d601f19601f8201168201806040525081019061161d9190612985565b60015b61169f573d805f811461164e576040519150601f19603f3d011682016040523d82523d5f602084013e611653565b606091505b505f815103611697576040517f08c379a000000000000000000000000000000000000000000000000000000000815260040161168e906124ed565b60405180910390fd5b805181602001fd5b63150b7a0260e01b7bffffffffffffffffffffffffffffffffffffffffffffffffffffffff1916817bffffffffffffffffffffffffffffffffffffffffffffffffffffffff1916149150506116f4565b600190505b949350505050565b60605f600161170a846117e8565b0190505f8167ffffffffffffffff81111561172857611727611cd8565b5b6040519080825280601f01601f19166020018201604052801561175a5781602001600182028036833780820191505090505b5090505f82602001820190505b6001156117bb578080600190039150507f3031323334353637383961626364656600000000000000000000000000000000600a86061a8153600a85816117b0576117af6129b0565b5b0494505f8503611767575b819350505050919050565b5f808273ffffffffffffffffffffffffffffffffffffffff163b119050919050565b5f805f90507a184f03e93ff9f4daa797ed6e38ed64bf6a1f0100000000000000008310611844577a184f03e93ff9f4daa797ed6e38ed64bf6a1f010000000000000000838161183a576118396129b0565b5b0492506040810190505b6d04ee2d6d415b85acef81000000008310611881576d04ee2d6d415b85acef81000000008381611877576118766129b0565b5b0492506020810190505b662386f26fc1000083106118b057662386f26fc1000083816118a6576118a56129b0565b5b0492506010810190505b6305f5e10083106118d9576305f5e10083816118cf576118ce6129b0565b5b0492506008810190505b61271083106118fe5761271083816118f4576118f36129b0565b5b0492506004810190505b606483106119215760648381611917576119166129b0565b5b0492506002810190505b600a8310611930576001810190505b80915050919050565b5f604051905090565b5f80fd5b5f80fd5b5f7fffffffff0000000000000000000000000000000000000000000000000000000082169050919050565b61197e8161194a565b8114611988575f80fd5b50565b5f8135905061199981611975565b92915050565b5f602082840312156119b4576119b3611942565b5b5f6119c18482850161198b565b91505092915050565b5f8115159050919050565b6119de816119ca565b82525050565b5f6020820190506119f75f8301846119d5565b92915050565b5f81519050919050565b5f82825260208201905092915050565b5f5b83811015611a34578082015181840152602081019050611a19565b5f8484015250505050565b5f601f19601f8301169050919050565b5f611a59826119fd565b611a638185611a07565b9350611a73818560208601611a17565b611a7c81611a3f565b840191505092915050565b5f6020820190508181035f830152611a9f8184611a4f565b905092915050565b5f819050919050565b611ab981611aa7565b8114611ac3575f80fd5b50565b5f81359050611ad481611ab0565b92915050565b5f60208284031215611aef57611aee611942565b5b5f611afc84828501611ac6565b91505092915050565b5f73ffffffffffffffffffffffffffffffffffffffff82169050919050565b5f611b2e82611b05565b9050919050565b611b3e81611b24565b82525050565b5f602082019050611b575f830184611b35565b92915050565b611b6681611b24565b8114611b70575f80fd5b50565b5f81359050611b8181611b5d565b92915050565b5f8060408385031215611b9d57611b9c611942565b5b5f611baa85828601611b73565b9250506020611bbb85828601611ac6565b9150509250929050565b611bce81611aa7565b82525050565b5f602082019050611be75f830184611bc5565b92915050565b5f805f60608486031215611c0457611c03611942565b5b5f611c1186828701611b73565b9350506020611c2286828701611b73565b9250506040611c3386828701611ac6565b9150509250925092565b5f60208284031215611c5257611c51611942565b5b5f611c5f84828501611b73565b91505092915050565b611c71816119ca565b8114611c7b575f80fd5b50565b5f81359050611c8c81611c68565b92915050565b5f8060408385031215611ca857611ca7611942565b5b5f611cb585828601611b73565b9250506020611cc685828601611c7e565b9150509250929050565b5f80fd5b5f80fd5b7f4e487b71000000000000000000000000000000000000000000000000000000005f52604160045260245ffd5b611d0e82611a3f565b810181811067ffffffffffffffff82111715611d2d57611d2c611cd8565b5b80604052505050565b5f611d3f611939565b9050611d4b8282611d05565b919050565b5f67ffffffffffffffff821115611d6a57611d69611cd8565b5b611d7382611a3f565b9050602081019050919050565b828183375f83830152505050565b5f611da0611d9b84611d50565b611d36565b905082815260208101848484011115611dbc57611dbb611cd4565b5b611dc7848285611d80565b509392505050565b5f82601f830112611de357611de2611cd0565b5b8135611df3848260208601611d8e565b91505092915050565b5f805f8060808587031215611e1457611e13611942565b5b5f611e2187828801611b73565b9450506020611e3287828801611b73565b9350506040611e4387828801611ac6565b925050606085013567ffffffffffffffff811115611e6457611e63611946565b5b611e7087828801611dcf565b91505092959194509250565b5f67ffffffffffffffff821115611e9657611e95611cd8565b5b611e9f82611a3f565b9050602081019050919050565b5f611ebe611eb984611e7c565b611d36565b905082815260208101848484011115611eda57611ed9611cd4565b5b611ee5848285611d80565b509392505050565b5f82601f830112611f0157611f00611cd0565b5b8135611f11848260208601611eac565b91505092915050565b5f60208284031215611f2f57611f2e611942565b5b5f82013567ffffffffffffffff811115611f4c57611f4b611946565b5b611f5884828501611eed565b91505092915050565b5f8060408385031215611f7757611f76611942565b5b5f611f8485828601611b73565b9250506020611f9585828601611b73565b9150509250929050565b7f4e487b71000000000000000000000000000000000000000000000000000000005f52602260045260245ffd5b5f6002820490506001821680611fe357607f821691505b602082108103611ff657611ff5611f9f565b5b50919050565b7f4552433732313a20617070726f76616c20746f2063757272656e74206f776e655f8201527f7200000000000000000000000000000000000000000000000000000000000000602082015250565b5f612056602183611a07565b915061206182611ffc565b604082019050919050565b5f6020820190508181035f8301526120838161204a565b9050919050565b7f4552433732313a20617070726f76652063616c6c6572206973206e6f7420746f5f8201527f6b656e206f776e6572206f7220617070726f76656420666f7220616c6c000000602082015250565b5f6120e4603d83611a07565b91506120ef8261208a565b604082019050919050565b5f6020820190508181035f830152612111816120d8565b9050919050565b7f4552433732313a2063616c6c6572206973206e6f7420746f6b656e206f776e655f8201527f72206f7220617070726f76656400000000000000000000000000000000000000602082015250565b5f612172602d83611a07565b915061217d82612118565b604082019050919050565b5f6020820190508181035f83015261219f81612166565b9050919050565b7f4552433732313a20696e76616c696420746f6b656e20494400000000000000005f82015250565b5f6121da601883611a07565b91506121e5826121a6565b602082019050919050565b5f6020820190508181035f830152612207816121ce565b9050919050565b7f4552433732313a2061646472657373207a65726f206973206e6f7420612076615f8201527f6c6964206f776e65720000000000000000000000000000000000000000000000602082015250565b5f612268602983611a07565b91506122738261220e565b604082019050919050565b5f6020820190508181035f8301526122958161225c565b9050919050565b5f81905092915050565b5f6122b0826119fd565b6122ba818561229c565b93506122ca818560208601611a17565b80840191505092915050565b5f6122e182856122a6565b91506122ed82846122a6565b91508190509392505050565b7f4552433732313a207472616e736665722066726f6d20696e636f7272656374205f8201527f6f776e6572000000000000000000000000000000000000000000000000000000602082015250565b5f612353602583611a07565b915061235e826122f9565b604082019050919050565b5f6020820190508181035f83015261238081612347565b9050919050565b7f4552433732313a207472616e7366657220746f20746865207a65726f206164645f8201527f7265737300000000000000000000000000000000000000000000000000000000602082015250565b5f6123e1602483611a07565b91506123ec82612387565b604082019050919050565b5f6020820190508181035f83015261240e816123d5565b9050919050565b7f4552433732313a20617070726f766520746f2063616c6c6572000000000000005f82015250565b5f612449601983611a07565b915061245482612415565b602082019050919050565b5f6020820190508181035f8301526124768161243d565b9050919050565b7f4552433732313a207472616e7366657220746f206e6f6e2045524337323152655f8201527f63656976657220696d706c656d656e7465720000000000000000000000000000602082015250565b5f6124d7603283611a07565b91506124e28261247d565b604082019050919050565b5f6020820190508181035f830152612504816124cb565b9050919050565b7f4552433732313a206d696e7420746f20746865207a65726f20616464726573735f82015250565b5f61253f602083611a07565b915061254a8261250b565b602082019050919050565b5f6020820190508181035f83015261256c81612533565b9050919050565b7f4552433732313a20746f6b656e20616c7265616479206d696e746564000000005f82015250565b5f6125a7601c83611a07565b91506125b282612573565b602082019050919050565b5f6020820190508181035f8301526125d48161259b565b9050919050565b7f45524337323155524953746f726167653a2055524920736574206f66206e6f6e5f8201527f6578697374656e7420746f6b656e000000000000000000000000000000000000602082015250565b5f612635602e83611a07565b9150612640826125db565b604082019050919050565b5f6020820190508181035f83015261266281612629565b9050919050565b5f819050815f5260205f209050919050565b5f6020601f8301049050919050565b5f82821b905092915050565b5f600883026126c57fffffffffffffffffffffffffffffffffffffffffffffffffffffffffffffffff8261268a565b6126cf868361268a565b95508019841693508086168417925050509392505050565b5f819050919050565b5f61270a61270561270084611aa7565b6126e7565b611aa7565b9050919050565b5f819050919050565b612723836126f0565b61273761272f82612711565b848454612696565b825550505050565b5f90565b61274b61273f565b61275681848461271a565b505050565b5b818110156127795761276e5f82612743565b60018101905061275c565b5050565b601f8211156127be5761278f81612669565b6127988461267b565b810160208510156127a7578190505b6127bb6127b38561267b565b83018261275b565b50505b505050565b5f82821c905092915050565b5f6127de5f19846008026127c3565b1980831691505092915050565b5f6127f683836127cf565b9150826002028217905092915050565b61280f826119fd565b67ffffffffffffffff81111561282857612827611cd8565b5b6128328254611fcc565b61283d82828561277d565b5f60209050601f83116001811461286e575f841561285c578287015190505b61286685826127eb565b8655506128cd565b601f19841661287c86612669565b5f5b828110156128a35784890151825560018201915060208501945060208101905061287e565b868310156128c057848901516128bc601f8916826127cf565b8355505b6001600288020188555050505b505050505050565b5f81519050919050565b5f82825260208201905092915050565b5f6128f9826128d5565b61290381856128df565b9350612913818560208601611a17565b61291c81611a3f565b840191505092915050565b5f60808201905061293a5f830187611b35565b6129476020830186611b35565b6129546040830185611bc5565b818103606083015261296681846128ef565b905095945050505050565b5f8151905061297f81611975565b92915050565b5f6020828403121561299a57612999611942565b5b5f6129a784828501612971565b91505092915050565b7f4e487b71000000000000000000000000000000000000000000000000000000005f52601260045260245ffdfea2646970667358221220107651224b34450a14887d39060b7bacb9063087d5e8485f798ae721f8bb022264736f6c63430008140033",
  "linkReferences": {},
  "deployedLinkReferences": {}
}