{
  "_format": "hh-sol-artifact-1",
  "contractName": "Escrow",
  "sourceName": "contracts/Escrow.sol",
  "abi": [
    {
      "inputs": [
        {
          "internalType": "address",
          "name": "_nftAddress",
          "type": "address"
        },
        {
          "internalType": "address payable",
          "name": "_seller",
          "type": "address"
        },
        {
          "internalType": "address",
          "name": "_inspector",
          "type": "address"
        },
        {
          "internalType": "address",
          "name": "_lender",
          "type": "address"
        }
      ],
      "stateMutability": "nonpayable",
      "type": "constructor"
    },
    {
      "inputs": [],
      "name": "inspector",
      "outputs": [
        {
          "internalType": "address",
          "name": "",
          "type": "address"
        }
      ],
      "stateMutability": "view",
      "type": "function"
    },
    {
      "inputs": [],
      "name": "lender",
      "outputs": [
        {
          "internalType": "address",
          "name": "",
          "type": "address"
        }
      ],
      "stateMutability": "view",
      "type": "function"
    },
    {
      "inputs": [],
      "name": "nftAddress",
      "outputs": [
        {
          "internalType": "address",
          "name": "",
          "type": "address"
        }
      ],
      "stateMutability": "view",
      "type": "function"
    },
    {
      "inputs": [],
      "name": "seller",
      "outputs": [
        {
          "internalType": "address payable",
          "name": "",
          "type": "address"
        }
      ],
      "stateMutability": "view",
      "type": "function"
    }
  ],
  "bytecode": "0x608060405234801561000f575f80fd5b50604051610462380380610462833981810160405281019061003191906101d2565b835f806101000a81548173ffffffffffffffffffffffffffffffffffffffff021916908373ffffffffffffffffffffffffffffffffffffffff1602179055508260015f6101000a81548173ffffffffffffffffffffffffffffffffffffffff021916908373ffffffffffffffffffffffffffffffffffffffff1602179055508160025f6101000a81548173ffffffffffffffffffffffffffffffffffffffff021916908373ffffffffffffffffffffffffffffffffffffffff1602179055508060035f6101000a81548173ffffffffffffffffffffffffffffffffffffffff021916908373ffffffffffffffffffffffffffffffffffffffff16021790555050505050610236565b5f80fd5b5f73ffffffffffffffffffffffffffffffffffffffff82169050919050565b5f6101668261013d565b9050919050565b6101768161015c565b8114610180575f80fd5b50565b5f815190506101918161016d565b92915050565b5f6101a18261013d565b9050919050565b6101b181610197565b81146101bb575f80fd5b50565b5f815190506101cc816101a8565b92915050565b5f805f80608085870312156101ea576101e9610139565b5b5f6101f787828801610183565b9450506020610208878288016101be565b935050604061021987828801610183565b925050606061022a87828801610183565b91505092959194509250565b61021f806102435f395ff3fe608060405234801561000f575f80fd5b506004361061004a575f3560e01c806308551a531461004e5780635bf8633a1461006c578063bcead63e1461008a578063ed2cee9e146100a8575b5f80fd5b6100566100c6565b6040516100639190610197565b60405180910390f35b6100746100eb565b60405161008191906101d0565b60405180910390f35b61009261010e565b60405161009f91906101d0565b60405180910390f35b6100b0610133565b6040516100bd91906101d0565b60405180910390f35b60015f9054906101000a900473ffffffffffffffffffffffffffffffffffffffff1681565b5f8054906101000a900473ffffffffffffffffffffffffffffffffffffffff1681565b60035f9054906101000a900473ffffffffffffffffffffffffffffffffffffffff1681565b60025f9054906101000a900473ffffffffffffffffffffffffffffffffffffffff1681565b5f73ffffffffffffffffffffffffffffffffffffffff82169050919050565b5f61018182610158565b9050919050565b61019181610177565b82525050565b5f6020820190506101aa5f830184610188565b92915050565b5f6101ba82610158565b9050919050565b6101ca816101b0565b82525050565b5f6020820190506101e35f8301846101c1565b9291505056fea2646970667358221220fbb22205587cb4ef782e30f982489ba7308f4e28515d0b0265aa9ef97f1b8bb864736f6c63430008140033",
  "linkReferences": {},
  "deployedLinkReferences": {}
}